:03000000020AD819
:0C0AD800787FE4F6D8FD7581120208005A
:100AB9004C43442048656C6C6F20576F726C64001E
:09092F0012085ED2817F057E00F2
:10093800E4FDFCC3ED9FEE6480F8EC6480985015EC
:10094800E4FBFA0BBB00010AEB64714A70F50DBDBC
:0509580000010C80DE2F
:01095D002277
:10085E00EF30E004D2008002C200EF30E104D2009B
:10086E008002C200EF30E204D2008002C200EF30FC
:10087E00E304D2008002C200EF30E404D2A480026E
:10088E00C2A4EF30E504D2A58002C2A5EF30E60483
:10089E00D2A68002C2A6EF30E703D2A722C2A722B9
:070AC9007E001209387F30A6
:080AD000C28012092FC281222D
:050B0A007F01020AD08A
:100A36008F12A905EF3395E0FEEF64014E7005E9CC
:100A460024808010AF12EF3395E0FEEF64024E7003
:090A560007E924C0FF120AD022B6
:100A0C00E4FF12085EC2807FC8120AC97F32120A44
:100A1C00C97F6E120AC97F38120AD07F0C120AD015
:0A0A2C007F01120AD07F06020AD0F3
:080B0200D28012092FC28122EA
:06098B008B088A09890AAD
:10099100E4F50BF50CAB08AA09A90A850C82850BB5
:1009A1008312095EFF600D120B02050CE50C70E568
:0409B100050B80E1D1
:0109B500221F
:050B0F007F1C020AD06A
:050B14007F18020AD069
:100A5F00EF30E004D2A48002C2A4EF30E104D2A5AB
:100A6F008002C2A5EF30E204D2A68002C2A6EF3008
:080A7F00E303D2A722C2A72263
:070AA7007E001209387F03F5
:0B0AAE00C280120A5F120932C28122CE
:0A0AE400E4FF120AAE7F01020AAE21
:0408AE008F0DA905FC
:1008B200EF3395E0FEEF64014E700FE92480FFF5FF
:1008C2000E7804A2E713D8FB801AAF0DEF3395E040
:1008D200FEEF64024E701EE924C0FFF50E7804A2FA
:1008E200E713D8FBF50FEF540FF510AF0F120AAE56
:0508F200AF10120AAE78
:0108F70022DE
:1008F800E4FF120A5F7FC8120AA77F32120AA77F95
:100908006E120AA77F02120AAE7F02120AAE7F0891
:10091800120AAEE4FF120AAE7F0C120AAEE4FF120E
:070928000AAE7F06020AAED1
:0209B600AE078A
:1009B800EE540FF9EE54F0FFD2807804A2E713D872
:1009C800FBFF120A5F120932C281AF01120A5FD21D
:0809D800817F05120938C2817C
:0109E00022F4
:0609E1008B0D8A0E890F48
:1009E700E4F510F511AB0DAA0EA90F85118285103C
:1009F7008312095EFF600D1209B60511E51170E556
:040A0700051080E175
:010A0B0022C8
:0A0AEE007F01120AAE7F0C020AAE6F
:0A0AF8007F01120AAE7F08020AAE69
:100A8700E4FDFCC3ED9FEC9E5015E4FBFA0BBB00A5
:0F0A9700010AEB64714A70F50DBD00010C80E49B
:010AA600222D
:100800001208F87D017F011208AE7BFF7A0A79B9E0
:100810001209E19000007FE87E03120A87120AF8AD
:10082000A3E582640F458370EDE4F583F5827FE8EC
:100830007E03120A87120AEEA3E582640F458370D5
:10084000ED120AE47D017F021208AE7F6D1209B637
:0E0850007F751209B67FD07E07120A8780A539
:10095E00BB010CE58229F582E5833AF583E022504E
:10096E0006E92582F8E622BBFE06E92582F8E22298
:0D097E00E58229F582E5833AF583E49322B2
:00000001FF
